{
  "_format": "hh-sol-artifact-1",
  "contractName": "MerkleContract",
  "sourceName": "contracts/Merkle.sol",
  "abi": [
    {
      "inputs": [
        {
          "internalType": "string",
          "name": "_name",
          "type": "string"
        },
        {
          "internalType": "string",
          "name": "_symbol",
          "type": "string"
        },
        {
          "internalType": "bytes32",
          "name": "_merkleRoot",
          "type": "bytes32"
        }
      ],
      "stateMutability": "nonpayable",
      "type": "constructor"
    },
    {
      "anonymous": false,
      "inputs": [
        {
          "indexed": true,
          "internalType": "address",
          "name": "owner",
          "type": "address"
        },
        {
          "indexed": true,
          "internalType": "address",
          "name": "spender",
          "type": "address"
        },
        {
          "indexed": false,
          "internalType": "uint256",
          "name": "value",
          "type": "uint256"
        }
      ],
      "name": "Approval",
      "type": "event"
    },
    {
      "anonymous": false,
      "inputs": [
        {
          "indexed": true,
          "internalType": "address",
          "name": "to",
          "type": "address"
        },
        {
          "indexed": false,
          "internalType": "uint256",
          "name": "amount",
          "type": "uint256"
        }
      ],
      "name": "Claim",
      "type": "event"
    },
    {
      "anonymous": false,
      "inputs": [
        {
          "indexed": true,
          "internalType": "address",
          "name": "from",
          "type": "address"
        },
        {
          "indexed": true,
          "internalType": "address",
          "name": "to",
          "type": "address"
        },
        {
          "indexed": false,
          "internalType": "uint256",
          "name": "value",
          "type": "uint256"
        }
      ],
      "name": "Transfer",
      "type": "event"
    },
    {
      "inputs": [
        {
          "internalType": "address",
          "name": "owner",
          "type": "address"
        },
        {
          "internalType": "address",
          "name": "spender",
          "type": "address"
        }
      ],
      "name": "allowance",
      "outputs": [
        {
          "internalType": "uint256",
          "name": "",
          "type": "uint256"
        }
      ],
      "stateMutability": "view",
      "type": "function"
    },
    {
      "inputs": [
        {
          "internalType": "address",
          "name": "spender",
          "type": "address"
        },
        {
          "internalType": "uint256",
          "name": "amount",
          "type": "uint256"
        }
      ],
      "name": "approve",
      "outputs": [
        {
          "internalType": "bool",
          "name": "",
          "type": "bool"
        }
      ],
      "stateMutability": "nonpayable",
      "type": "function"
    },
    {
      "inputs": [
        {
          "internalType": "address",
          "name": "account",
          "type": "address"
        }
      ],
      "name": "balanceOf",
      "outputs": [
        {
          "internalType": "uint256",
          "name": "",
          "type": "uint256"
        }
      ],
      "stateMutability": "view",
      "type": "function"
    },
    {
      "inputs": [
        {
          "internalType": "address",
          "name": "to",
          "type": "address"
        },
        {
          "internalType": "uint256",
          "name": "amount",
          "type": "uint256"
        },
        {
          "internalType": "bytes32[]",
          "name": "proof",
          "type": "bytes32[]"
        }
      ],
      "name": "claim",
      "outputs": [],
      "stateMutability": "nonpayable",
      "type": "function"
    },
    {
      "inputs": [
        {
          "internalType": "address",
          "name": "",
          "type": "address"
        }
      ],
      "name": "claimed",
      "outputs": [
        {
          "internalType": "bool",
          "name": "",
          "type": "bool"
        }
      ],
      "stateMutability": "view",
      "type": "function"
    },
    {
      "inputs": [],
      "name": "decimals",
      "outputs": [
        {
          "internalType": "uint8",
          "name": "",
          "type": "uint8"
        }
      ],
      "stateMutability": "view",
      "type": "function"
    },
    {
      "inputs": [
        {
          "internalType": "address",
          "name": "spender",
          "type": "address"
        },
        {
          "internalType": "uint256",
          "name": "subtractedValue",
          "type": "uint256"
        }
      ],
      "name": "decreaseAllowance",
      "outputs": [
        {
          "internalType": "bool",
          "name": "",
          "type": "bool"
        }
      ],
      "stateMutability": "nonpayable",
      "type": "function"
    },
    {
      "inputs": [],
      "name": "getClaimedStatus",
      "outputs": [
        {
          "internalType": "bool",
          "name": "",
          "type": "bool"
        }
      ],
      "stateMutability": "view",
      "type": "function"
    },
    {
      "inputs": [
        {
          "internalType": "address",
          "name": "spender",
          "type": "address"
        },
        {
          "internalType": "uint256",
          "name": "addedValue",
          "type": "uint256"
        }
      ],
      "name": "increaseAllowance",
      "outputs": [
        {
          "internalType": "bool",
          "name": "",
          "type": "bool"
        }
      ],
      "stateMutability": "nonpayable",
      "type": "function"
    },
    {
      "inputs": [],
      "name": "merkleRoot",
      "outputs": [
        {
          "internalType": "bytes32",
          "name": "",
          "type": "bytes32"
        }
      ],
      "stateMutability": "view",
      "type": "function"
    },
    {
      "inputs": [],
      "name": "name",
      "outputs": [
        {
          "internalType": "string",
          "name": "",
          "type": "string"
        }
      ],
      "stateMutability": "view",
      "type": "function"
    },
    {
      "inputs": [],
      "name": "symbol",
      "outputs": [
        {
          "internalType": "string",
          "name": "",
          "type": "string"
        }
      ],
      "stateMutability": "view",
      "type": "function"
    },
    {
      "inputs": [],
      "name": "totalSupply",
      "outputs": [
        {
          "internalType": "uint256",
          "name": "",
          "type": "uint256"
        }
      ],
      "stateMutability": "view",
      "type": "function"
    },
    {
      "inputs": [
        {
          "internalType": "address",
          "name": "to",
          "type": "address"
        },
        {
          "internalType": "uint256",
          "name": "amount",
          "type": "uint256"
        }
      ],
      "name": "transfer",
      "outputs": [
        {
          "internalType": "bool",
          "name": "",
          "type": "bool"
        }
      ],
      "stateMutability": "nonpayable",
      "type": "function"
    },
    {
      "inputs": [
        {
          "internalType": "address",
          "name": "from",
          "type": "address"
        },
        {
          "internalType": "address",
          "name": "to",
          "type": "address"
        },
        {
          "internalType": "uint256",
          "name": "amount",
          "type": "uint256"
        }
      ],
      "name": "transferFrom",
      "outputs": [
        {
          "internalType": "bool",
          "name": "",
          "type": "bool"
        }
      ],
      "stateMutability": "nonpayable",
      "type": "function"
    }
  ],
  "bytecode": "0x60a06040526005805460ff19166009179055670de0b6b3a76400006006553480156200002a57600080fd5b506040516200107f3803806200107f8339810160408190526200004d91620001e4565b825183908390620000669060039060208501906200008b565b5080516200007c9060049060208401906200008b565b50505060805250620002a79050565b828054620000999062000254565b90600052602060002090601f016020900481019282620000bd576000855562000108565b82601f10620000d857805160ff191683800117855562000108565b8280016001018555821562000108579182015b8281111562000108578251825591602001919060010190620000eb565b50620001169291506200011a565b5090565b5b808211156200011657600081556001016200011b565b600082601f83011262000142578081fd5b81516001600160401b03808211156200015f576200015f62000291565b604051601f8301601f19908116603f011681019082821181831017156200018a576200018a62000291565b81604052838152602092508683858801011115620001a6578485fd5b8491505b83821015620001c95785820183015181830184015290820190620001aa565b83821115620001da57848385830101525b9695505050505050565b600080600060608486031215620001f9578283fd5b83516001600160401b038082111562000210578485fd5b6200021e8783880162000131565b9450602086015191508082111562000234578384fd5b50620002438682870162000131565b925050604084015190509250925092565b600181811c908216806200026957607f821691505b602082108114156200028b57634e487b7160e01b600052602260045260246000fd5b50919050565b634e487b7160e01b600052604160045260246000fd5b608051610db5620002ca6000396000818161016501526104740152610db56000f3fe608060405234801561001057600080fd5b50600436106100f55760003560e01c80633d13f87411610097578063a9059cbb11610066578063a9059cbb14610208578063c884ef831461021b578063dd62ed3e1461023e578063fc395c3f1461027757600080fd5b80633d13f874146101af57806370a08231146101c457806395d89b41146101ed578063a457c2d7146101f557600080fd5b806323b872dd116100d357806323b872dd1461014d5780632eb4a7ab14610160578063313ce56714610187578063395093511461019c57600080fd5b806306fdde03146100fa578063095ea7b31461011857806318160ddd1461013b575b600080fd5b61010261028f565b60405161010f9190610c88565b60405180910390f35b61012b610126366004610bda565b610321565b604051901515815260200161010f565b6002545b60405190815260200161010f565b61012b61015b366004610b9f565b610339565b61013f7f000000000000000000000000000000000000000000000000000000000000000081565b60055460405160ff909116815260200161010f565b61012b6101aa366004610bda565b61035d565b6101c26101bd366004610c03565b61039c565b005b61013f6101d2366004610b53565b6001600160a01b031660009081526020819052604090205490565b61010261057a565b61012b610203366004610bda565b610589565b61012b610216366004610bda565b61061b565b61012b610229366004610b53565b60076020526000908152604090205460ff1681565b61013f61024c366004610b6d565b6001600160a01b03918216600090815260016020908152604080832093909416825291909152205490565b3360009081526007602052604090205460ff1661012b565b60606003805461029e90610d13565b80601f01602080910402602001604051908101604052809291908181526020018280546102ca90610d13565b80156103175780601f106102ec57610100808354040283529160200191610317565b820191906000526020600020905b8154815290600101906020018083116102fa57829003601f168201915b5050505050905090565b60003361032f818585610629565b5060019392505050565b60003361034785828561074d565b6103528585856107df565b506001949350505050565b3360008181526001602090815260408083206001600160a01b038716845290915281205490919061032f9082908690610397908790610cdb565b610629565b6001600160a01b03841660009081526007602052604090205460ff16156103fc5760405162461bcd60e51b815260206004820152600f60248201526e105b1c9958591e4818db185a5b5959608a1b60448201526064015b60405180910390fd5b6040516bffffffffffffffffffffffff19606086901b16602082015260348101849052600090605401604051602081830303815290604052805190602001209050600061049f8484808060200260200160405190810160405280939291908181526020018383602002808284376000920191909152507f000000000000000000000000000000000000000000000000000000000000000092508691506109ad9050565b9050806104ee5760405162461bcd60e51b815260206004820152601f60248201527f4e6f74207065726d697373696f6e20666f72207468697320616464726573730060448201526064016103f3565b6001600160a01b0386166000908152600760205260409020805460ff191660011790556105288661052387633b9aca006109c3565b6109d6565b6001600160a01b0386167f47cee97cb7acd717b3c0aa1435d004cd5b3c8c57d70dbceb4e4458bbd60e39d461056187633b9aca006109c3565b60405190815260200160405180910390a2505050505050565b60606004805461029e90610d13565b3360008181526001602090815260408083206001600160a01b03871684529091528120549091908381101561060e5760405162461bcd60e51b815260206004820152602560248201527f45524332303a2064656372656173656420616c6c6f77616e63652062656c6f77604482015264207a65726f60d81b60648201526084016103f3565b6103528286868403610629565b60003361032f8185856107df565b6001600160a01b03831661068b5760405162461bcd60e51b8152602060048201526024808201527f45524332303a20617070726f76652066726f6d20746865207a65726f206164646044820152637265737360e01b60648201526084016103f3565b6001600160a01b0382166106ec5760405162461bcd60e51b815260206004820152602260248201527f45524332303a20617070726f766520746f20746865207a65726f206164647265604482015261737360f01b60648201526084016103f3565b6001600160a01b0383811660008181526001602090815260408083209487168084529482529182902085905590518481527f8c5be1e5ebec7d5bd14f71427d1e84f3dd0314c0f7b2291e5b200ac8c7c3b925910160405180910390a3505050565b6001600160a01b0383811660009081526001602090815260408083209386168352929052205460001981146107d957818110156107cc5760405162461bcd60e51b815260206004820152601d60248201527f45524332303a20696e73756666696369656e7420616c6c6f77616e636500000060448201526064016103f3565b6107d98484848403610629565b50505050565b6001600160a01b0383166108435760405162461bcd60e51b815260206004820152602560248201527f45524332303a207472616e736665722066726f6d20746865207a65726f206164604482015264647265737360d81b60648201526084016103f3565b6001600160a01b0382166108a55760405162461bcd60e51b815260206004820152602360248201527f45524332303a207472616e7366657220746f20746865207a65726f206164647260448201526265737360e81b60648201526084016103f3565b6001600160a01b0383166000908152602081905260409020548181101561091d5760405162461bcd60e51b815260206004820152602660248201527f45524332303a207472616e7366657220616d6f756e7420657863656564732062604482015265616c616e636560d01b60648201526084016103f3565b6001600160a01b03808516600090815260208190526040808220858503905591851681529081208054849290610954908490610cdb565b92505081905550826001600160a01b0316846001600160a01b03167fddf252ad1be2c89b69c2b068fc378daa952ba7f163c4a11628f55a4df523b3ef846040516109a091815260200190565b60405180910390a36107d9565b6000826109ba8584610ab5565b14949350505050565b60006109cf8284610cf3565b9392505050565b6001600160a01b038216610a2c5760405162461bcd60e51b815260206004820152601f60248201527f45524332303a206d696e7420746f20746865207a65726f20616464726573730060448201526064016103f3565b8060026000828254610a3e9190610cdb565b90915550506001600160a01b03821660009081526020819052604081208054839290610a6b908490610cdb565b90915550506040518181526001600160a01b038316906000907fddf252ad1be2c89b69c2b068fc378daa952ba7f163c4a11628f55a4df523b3ef9060200160405180910390a35050565b600081815b8451811015610b2f576000858281518110610ae557634e487b7160e01b600052603260045260246000fd5b60200260200101519050808311610b0b5760008381526020829052604090209250610b1c565b600081815260208490526040902092505b5080610b2781610d4e565b915050610aba565b509392505050565b80356001600160a01b0381168114610b4e57600080fd5b919050565b600060208284031215610b64578081fd5b6109cf82610b37565b60008060408385031215610b7f578081fd5b610b8883610b37565b9150610b9660208401610b37565b90509250929050565b600080600060608486031215610bb3578081fd5b610bbc84610b37565b9250610bca60208501610b37565b9150604084013590509250925092565b60008060408385031215610bec578182fd5b610bf583610b37565b946020939093013593505050565b60008060008060608587031215610c18578081fd5b610c2185610b37565b935060208501359250604085013567ffffffffffffffff80821115610c44578283fd5b818701915087601f830112610c57578283fd5b813581811115610c65578384fd5b8860208260051b8501011115610c79578384fd5b95989497505060200194505050565b6000602080835283518082850152825b81811015610cb457858101830151858201604001528201610c98565b81811115610cc55783604083870101525b50601f01601f1916929092016040019392505050565b60008219821115610cee57610cee610d69565b500190565b600082610d0e57634e487b7160e01b81526012600452602481fd5b500490565b600181811c90821680610d2757607f821691505b60208210811415610d4857634e487b7160e01b600052602260045260246000fd5b50919050565b6000600019821415610d6257610d62610d69565b5060010190565b634e487b7160e01b600052601160045260246000fdfea2646970667358221220d670d94868d54966dc8b49677b50e365684cd72520a6328083b8d90a234a9b2464736f6c63430008040033",
  "linkReferences": {},
  "deployedLinkReferences": {}
}